{
  "_format": "hh-sol-artifact-1",
  "contractName": "Freelancer",
  "sourceName": "contracts/Freelancer.sol",
  "abi": [
    {
      "inputs": [
        {
          "internalType": "uint256",
          "name": "_index",
          "type": "uint256"
        }
      ],
      "name": "applyTask",
      "outputs": [],
      "stateMutability": "nonpayable",
      "type": "function"
    },
    {
      "inputs": [
        {
          "internalType": "uint256",
          "name": "_index",
          "type": "uint256"
        }
      ],
      "name": "claimTask",
      "outputs": [],
      "stateMutability": "nonpayable",
      "type": "function"
    },
    {
      "inputs": [
        {
          "internalType": "uint256",
          "name": "_index",
          "type": "uint256"
        }
      ],
      "name": "completeTask",
      "outputs": [],
      "stateMutability": "nonpayable",
      "type": "function"
    },
    {
      "inputs": [
        {
          "internalType": "string",
          "name": "_detail",
          "type": "string"
        }
      ],
      "name": "createTask",
      "outputs": [
        {
          "internalType": "uint256",
          "name": "",
          "type": "uint256"
        }
      ],
      "stateMutability": "payable",
      "type": "function"
    },
    {
      "inputs": [],
      "name": "getAllTasks",
      "outputs": [
        {
          "components": [
            {
              "internalType": "string",
              "name": "detail",
              "type": "string"
            },
            {
              "internalType": "address payable",
              "name": "creator",
              "type": "address"
            },
            {
              "internalType": "address payable",
              "name": "freelancer",
              "type": "address"
            },
            {
              "internalType": "enum Freelancer.Statuses",
              "name": "status",
              "type": "uint8"
            },
            {
              "internalType": "uint256",
              "name": "amount",
              "type": "uint256"
            },
            {
              "internalType": "uint256",
              "name": "updatedAt",
              "type": "uint256"
            }
          ],
          "internalType": "struct Freelancer.Task[]",
          "name": "",
          "type": "tuple[]"
        }
      ],
      "stateMutability": "view",
      "type": "function"
    },
    {
      "inputs": [
        {
          "internalType": "uint256",
          "name": "_index",
          "type": "uint256"
        }
      ],
      "name": "getTask",
      "outputs": [
        {
          "components": [
            {
              "internalType": "string",
              "name": "detail",
              "type": "string"
            },
            {
              "internalType": "address payable",
              "name": "creator",
              "type": "address"
            },
            {
              "internalType": "address payable",
              "name": "freelancer",
              "type": "address"
            },
            {
              "internalType": "enum Freelancer.Statuses",
              "name": "status",
              "type": "uint8"
            },
            {
              "internalType": "uint256",
              "name": "amount",
              "type": "uint256"
            },
            {
              "internalType": "uint256",
              "name": "updatedAt",
              "type": "uint256"
            }
          ],
          "internalType": "struct Freelancer.Task",
          "name": "",
          "type": "tuple"
        }
      ],
      "stateMutability": "view",
      "type": "function"
    },
    {
      "inputs": [
        {
          "internalType": "uint256",
          "name": "_index",
          "type": "uint256"
        }
      ],
      "name": "getTaskStatus",
      "outputs": [
        {
          "internalType": "enum Freelancer.Statuses",
          "name": "",
          "type": "uint8"
        }
      ],
      "stateMutability": "view",
      "type": "function"
    },
    {
      "inputs": [],
      "name": "getTotalNum",
      "outputs": [
        {
          "internalType": "uint256",
          "name": "",
          "type": "uint256"
        }
      ],
      "stateMutability": "view",
      "type": "function"
    },
    {
      "inputs": [
        {
          "internalType": "uint256",
          "name": "_index",
          "type": "uint256"
        }
      ],
      "name": "payTask",
      "outputs": [],
      "stateMutability": "nonpayable",
      "type": "function"
    },
    {
      "inputs": [
        {
          "internalType": "uint256",
          "name": "_index",
          "type": "uint256"
        }
      ],
      "name": "startTask",
      "outputs": [],
      "stateMutability": "nonpayable",
      "type": "function"
    },
    {
      "inputs": [
        {
          "internalType": "uint256",
          "name": "",
          "type": "uint256"
        }
      ],
      "name": "tasks",
      "outputs": [
        {
          "internalType": "string",
          "name": "detail",
          "type": "string"
        },
        {
          "internalType": "address payable",
          "name": "creator",
          "type": "address"
        },
        {
          "internalType": "address payable",
          "name": "freelancer",
          "type": "address"
        },
        {
          "internalType": "enum Freelancer.Statuses",
          "name": "status",
          "type": "uint8"
        },
        {
          "internalType": "uint256",
          "name": "amount",
          "type": "uint256"
        },
        {
          "internalType": "uint256",
          "name": "updatedAt",
          "type": "uint256"
        }
      ],
      "stateMutability": "view",
      "type": "function"
    },
    {
      "inputs": [
        {
          "internalType": "address",
          "name": "",
          "type": "address"
        }
      ],
      "name": "userBalance",
      "outputs": [
        {
          "internalType": "uint256",
          "name": "",
          "type": "uint256"
        }
      ],
      "stateMutability": "view",
      "type": "function"
    }
  ],
  "bytecode": "0x608060405234801561001057600080fd5b50612686806100206000396000f3fe6080604052600436106100a75760003560e01c806357984ad61161006457806357984ad6146101e75780635f94432614610210578063779900b4146102395780638d977672146102645780638dd33495146102a6578063e1e29558146102cf576100a7565b80630103c92b146100ac578063111002aa146100e95780631d65e77e146101195780632508402c1461015657806337fa92091461017f5780635290900b146101aa575b600080fd5b3480156100b857600080fd5b506100d360048036038101906100ce9190611c69565b6102f8565b6040516100e091906122ee565b60405180910390f35b61010360048036038101906100fe9190611c92565b610310565b60405161011091906122ee565b60405180910390f35b34801561012557600080fd5b50610140600480360381019061013b9190611cd3565b61058d565b60405161014d91906122cc565b60405180910390f35b34801561016257600080fd5b5061017d60048036038101906101789190611cd3565b6107c8565b005b34801561018b57600080fd5b50610194610ccd565b6040516101a191906122ee565b60405180910390f35b3480156101b657600080fd5b506101d160048036038101906101cc9190611cd3565b610cd9565b6040516101de91906121a9565b60405180910390f35b3480156101f357600080fd5b5061020e60048036038101906102099190611cd3565b610d3a565b005b34801561021c57600080fd5b5061023760048036038101906102329190611cd3565b610eb1565b005b34801561024557600080fd5b5061024e611077565b60405161025b9190612187565b60405180910390f35b34801561027057600080fd5b5061028b60048036038101906102869190611cd3565b6112af565b60405161029d969594939291906121c4565b60405180910390f35b3480156102b257600080fd5b506102cd60048036038101906102c89190611cd3565b6113d0565b005b3480156102db57600080fd5b506102f660048036038101906102f19190611cd3565b6118d4565b005b60016020528060005260406000206000915090505481565b600080341415610355576040517f08c379a000000000000000000000000000000000000000000000000000000000815260040161034c9061228c565b60405180910390fd5b60006040518060c001604052808481526020013373ffffffffffffffffffffffffffffffffffffffff168152602001600073ffffffffffffffffffffffffffffffffffffffff168152602001600060058111156103db577f4e487b7100000000000000000000000000000000000000000000000000000000600052602160045260246000fd5b8152602001348152602001428152509080600181540180825580915050600190039060005260206000209060050201600090919091909150600082015181600001908051906020019061042f929190611a9a565b5060208201518160010160006101000a81548173ffffffffffffffffffffffffffffffffffffffff021916908373ffffffffffffffffffffffffffffffffffffffff16021790555060408201518160020160006101000a81548173ffffffffffffffffffffffffffffffffffffffff021916908373ffffffffffffffffffffffffffffffffffffffff16021790555060608201518160020160146101000a81548160ff0219169083600581111561050f577f4e487b7100000000000000000000000000000000000000000000000000000000600052602160045260246000fd5b02179055506080820151816003015560a08201518160040155505034600160003373ffffffffffffffffffffffffffffffffffffffff1673ffffffffffffffffffffffffffffffffffffffff168152602001908152602001600020600082825461057991906123d0565b925050819055506000805490509050919050565b610595611b20565b600082815481106105cf577f4e487b7100000000000000000000000000000000000000000000000000000000600052603260045260246000fd5b90600052602060002090600502016040518060c00160405290816000820180546105f89061250f565b80601f01602080910402602001604051908101604052809291908181526020018280546106249061250f565b80156106715780601f1061064657610100808354040283529160200191610671565b820191906000526020600020905b81548152906001019060200180831161065457829003601f168201915b505050505081526020016001820160009054906101000a900473ffffffffffffffffffffffffffffffffffffffff1673ffffffffffffffffffffffffffffffffffffffff1673ffffffffffffffffffffffffffffffffffffffff1681526020016002820160009054906101000a900473ffffffffffffffffffffffffffffffffffffffff1673ffffffffffffffffffffffffffffffffffffffff1673ffffffffffffffffffffffffffffffffffffffff1681526020016002820160149054906101000a900460ff166005811115610771577f4e487b7100000000000000000000000000000000000000000000000000000000600052602160045260246000fd5b60058111156107a9577f4e487b7100000000000000000000000000000000000000000000000000000000600052602160045260246000fd5b8152602001600382015481526020016004820154815250509050919050565b60008181548110610802577f4e487b7100000000000000000000000000000000000000000000000000000000600052603260045260246000fd5b906000526020600020906005020160010160009054906101000a900473ffffffffffffffffffffffffffffffffffffffff1673ffffffffffffffffffffffffffffffffffffffff163373ffffffffffffffffffffffffffffffffffffffff16146108a1576040517f08c379a00000000000000000000000000000000000000000000000000000000081526004016108989061224c565b60405180910390fd5b600081815481106108db577f4e487b7100000000000000000000000000000000000000000000000000000000600052603260045260246000fd5b9060005260206000209060050201600301546001600080848154811061092a577f4e487b7100000000000000000000000000000000000000000000000000000000600052603260045260246000fd5b906000526020600020906005020160010160009054906101000a900473ffffffffffffffffffffffffffffffffffffffff1673ffffffffffffffffffffffffffffffffffffffff1673ffffffffffffffffffffffffffffffffffffffff1681526020019081526020016000205410156109d8576040517f08c379a00000000000000000000000000000000000000000000000000000000081526004016109cf9061222c565b60405180910390fd5b600460008281548110610a14577f4e487b7100000000000000000000000000000000000000000000000000000000600052603260045260246000fd5b906000526020600020906005020160020160146101000a81548160ff02191690836005811115610a6d577f4e487b7100000000000000000000000000000000000000000000000000000000600052602160045260246000fd5b02179055504260008281548110610aad577f4e487b7100000000000000000000000000000000000000000000000000000000600052603260045260246000fd5b90600052602060002090600502016004018190555060008181548110610afc577f4e487b7100000000000000000000000000000000000000000000000000000000600052603260045260246000fd5b906000526020600020906005020160020160009054906101000a900473ffffffffffffffffffffffffffffffffffffffff1673ffffffffffffffffffffffffffffffffffffffff166108fc60008381548110610b81577f4e487b7100000000000000000000000000000000000000000000000000000000600052603260045260246000fd5b9060005260206000209060050201600301549081150290604051600060405180830381858888f19350505050158015610bbe573d6000803e3d6000fd5b5060008181548110610bf9577f4e487b7100000000000000000000000000000000000000000000000000000000600052603260045260246000fd5b90600052602060002090600502016003015460016000808481548110610c48577f4e487b7100000000000000000000000000000000000000000000000000000000600052603260045260246000fd5b906000526020600020906005020160010160009054906101000a900473ffffffffffffffffffffffffffffffffffffffff1673ffffffffffffffffffffffffffffffffffffffff1673ffffffffffffffffffffffffffffffffffffffff1681526020019081526020016000206000828254610cc39190612426565b9250508190555050565b60008080549050905090565b6000808281548110610d14577f4e487b7100000000000000000000000000000000000000000000000000000000600052603260045260246000fd5b906000526020600020906005020160020160149054906101000a900460ff169050919050565b3360008281548110610d75577f4e487b7100000000000000000000000000000000000000000000000000000000600052603260045260246000fd5b906000526020600020906005020160020160006101000a81548173ffffffffffffffffffffffffffffffffffffffff021916908373ffffffffffffffffffffffffffffffffffffffff160217905550600160008281548110610e00577f4e487b7100000000000000000000000000000000000000000000000000000000600052603260045260246000fd5b906000526020600020906005020160020160146101000a81548160ff02191690836005811115610e59577f4e487b7100000000000000000000000000000000000000000000000000000000600052602160045260246000fd5b02179055504260008281548110610e99577f4e487b7100000000000000000000000000000000000000000000000000000000600052603260045260246000fd5b90600052602060002090600502016004018190555050565b60008181548110610eeb577f4e487b7100000000000000000000000000000000000000000000000000000000600052603260045260246000fd5b906000526020600020906005020160010160009054906101000a900473ffffffffffffffffffffffffffffffffffffffff1673ffffffffffffffffffffffffffffffffffffffff163373ffffffffffffffffffffffffffffffffffffffff1614610f8a576040517f08c379a0000000000000000000000000000000000000000000000000000000008152600401610f819061224c565b60405180910390fd5b600260008281548110610fc6577f4e487b7100000000000000000000000000000000000000000000000000000000600052603260045260246000fd5b906000526020600020906005020160020160146101000a81548160ff0219169083600581111561101f577f4e487b7100000000000000000000000000000000000000000000000000000000600052602160045260246000fd5b0217905550426000828154811061105f577f4e487b7100000000000000000000000000000000000000000000000000000000600052603260045260246000fd5b90600052602060002090600502016004018190555050565b60606000805480602002602001604051908101604052809291908181526020016000905b828210156112a657838290600052602060002090600502016040518060c00160405290816000820180546110ce9061250f565b80601f01602080910402602001604051908101604052809291908181526020018280546110fa9061250f565b80156111475780601f1061111c57610100808354040283529160200191611147565b820191906000526020600020905b81548152906001019060200180831161112a57829003601f168201915b505050505081526020016001820160009054906101000a900473ffffffffffffffffffffffffffffffffffffffff1673ffffffffffffffffffffffffffffffffffffffff1673ffffffffffffffffffffffffffffffffffffffff1681526020016002820160009054906101000a900473ffffffffffffffffffffffffffffffffffffffff1673ffffffffffffffffffffffffffffffffffffffff1673ffffffffffffffffffffffffffffffffffffffff1681526020016002820160149054906101000a900460ff166005811115611247577f4e487b7100000000000000000000000000000000000000000000000000000000600052602160045260246000fd5b600581111561127f577f4e487b7100000000000000000000000000000000000000000000000000000000600052602160045260246000fd5b8152602001600382015481526020016004820154815250508152602001906001019061109b565b50505050905090565b600081815481106112bf57600080fd5b90600052602060002090600502016000915090508060000180546112e29061250f565b80601f016020809104026020016040519081016040528092919081815260200182805461130e9061250f565b801561135b5780601f106113305761010080835404028352916020019161135b565b820191906000526020600020905b81548152906001019060200180831161133e57829003601f168201915b5050505050908060010160009054906101000a900473ffffffffffffffffffffffffffffffffffffffff16908060020160009054906101000a900473ffffffffffffffffffffffffffffffffffffffff16908060020160149054906101000a900460ff16908060030154908060040154905086565b6000818154811061140a577f4e487b7100000000000000000000000000000000000000000000000000000000600052603260045260246000fd5b906000526020600020906005020160010160009054906101000a900473ffffffffffffffffffffffffffffffffffffffff1673ffffffffffffffffffffffffffffffffffffffff163373ffffffffffffffffffffffffffffffffffffffff16146114a9576040517f08c379a00000000000000000000000000000000000000000000000000000000081526004016114a09061224c565b60405180910390fd5b600081815481106114e3577f4e487b7100000000000000000000000000000000000000000000000000000000600052603260045260246000fd5b90600052602060002090600502016003015460016000808481548110611532577f4e487b7100000000000000000000000000000000000000000000000000000000600052603260045260246000fd5b906000526020600020906005020160010160009054906101000a900473ffffffffffffffffffffffffffffffffffffffff1673ffffffffffffffffffffffffffffffffffffffff1673ffffffffffffffffffffffffffffffffffffffff16815260200190815260200160002054116115df576040517f08c379a00000000000000000000000000000000000000000000000000000000081526004016115d69061226c565b60405180910390fd5b60056000828154811061161b577f4e487b7100000000000000000000000000000000000000000000000000000000600052603260045260246000fd5b906000526020600020906005020160020160146101000a81548160ff02191690836005811115611674577f4e487b7100000000000000000000000000000000000000000000000000000000600052602160045260246000fd5b021790555042600082815481106116b4577f4e487b7100000000000000000000000000000000000000000000000000000000600052603260045260246000fd5b90600052602060002090600502016004018190555060008181548110611703577f4e487b7100000000000000000000000000000000000000000000000000000000600052603260045260246000fd5b906000526020600020906005020160010160009054906101000a900473ffffffffffffffffffffffffffffffffffffffff1673ffffffffffffffffffffffffffffffffffffffff166108fc60008381548110611788577f4e487b7100000000000000000000000000000000000000000000000000000000600052603260045260246000fd5b9060005260206000209060050201600301549081150290604051600060405180830381858888f193505050501580156117c5573d6000803e3d6000fd5b5060008181548110611800577f4e487b7100000000000000000000000000000000000000000000000000000000600052603260045260246000fd5b9060005260206000209060050201600301546001600080848154811061184f577f4e487b7100000000000000000000000000000000000000000000000000000000600052603260045260246000fd5b906000526020600020906005020160010160009054906101000a900473ffffffffffffffffffffffffffffffffffffffff1673ffffffffffffffffffffffffffffffffffffffff1673ffffffffffffffffffffffffffffffffffffffff16815260200190815260200160002060008282546118ca9190612426565b9250508190555050565b6000818154811061190e577f4e487b7100000000000000000000000000000000000000000000000000000000600052603260045260246000fd5b906000526020600020906005020160020160009054906101000a900473ffffffffffffffffffffffffffffffffffffffff1673ffffffffffffffffffffffffffffffffffffffff163373ffffffffffffffffffffffffffffffffffffffff16146119ad576040517f08c379a00000000000000000000000000000000000000000000000000000000081526004016119a4906122ac565b60405180910390fd5b6003600082815481106119e9577f4e487b7100000000000000000000000000000000000000000000000000000000600052603260045260246000fd5b906000526020600020906005020160020160146101000a81548160ff02191690836005811115611a42577f4e487b7100000000000000000000000000000000000000000000000000000000600052602160045260246000fd5b02179055504260008281548110611a82577f4e487b7100000000000000000000000000000000000000000000000000000000600052603260045260246000fd5b90600052602060002090600502016004018190555050565b828054611aa69061250f565b90600052602060002090601f016020900481019282611ac85760008555611b0f565b82601f10611ae157805160ff1916838001178555611b0f565b82800160010185558215611b0f579182015b82811115611b0e578251825591602001919060010190611af3565b5b509050611b1c9190611bba565b5090565b6040518060c0016040528060608152602001600073ffffffffffffffffffffffffffffffffffffffff168152602001600073ffffffffffffffffffffffffffffffffffffffff16815260200160006005811115611ba6577f4e487b7100000000000000000000000000000000000000000000000000000000600052602160045260246000fd5b815260200160008152602001600081525090565b5b80821115611bd3576000816000905550600101611bbb565b5090565b6000611bea611be58461233a565b612309565b905082815260208101848484011115611c0257600080fd5b611c0d8482856124cd565b509392505050565b600081359050611c2481612622565b92915050565b600082601f830112611c3b57600080fd5b8135611c4b848260208601611bd7565b91505092915050565b600081359050611c6381612639565b92915050565b600060208284031215611c7b57600080fd5b6000611c8984828501611c15565b91505092915050565b600060208284031215611ca457600080fd5b600082013567ffffffffffffffff811115611cbe57600080fd5b611cca84828501611c2a565b91505092915050565b600060208284031215611ce557600080fd5b6000611cf384828501611c54565b91505092915050565b6000611d088383612057565b905092915050565b611d198161246c565b82525050565b611d288161246c565b82525050565b6000611d398261237a565b611d43818561239d565b935083602082028501611d558561236a565b8060005b85811015611d915784840389528151611d728582611cfc565b9450611d7d83612390565b925060208a01995050600181019050611d59565b50829750879550505050505092915050565b611dac816124bb565b82525050565b611dbb816124bb565b82525050565b6000611dcc82612385565b611dd681856123ae565b9350611de68185602086016124dc565b611def816125fd565b840191505092915050565b6000611e0582612385565b611e0f81856123bf565b9350611e1f8185602086016124dc565b611e28816125fd565b840191505092915050565b6000611e406020836123bf565b91507f596f75206861766520696e7375666669656e742066756e647320746f205061796000830152602082019050919050565b6000611e806022836123bf565b91507f596f7520617265206e6f7420612063726561746f72206f66207468697320546160008301527f736b0000000000000000000000000000000000000000000000000000000000006020830152604082019050919050565b6000611ee66022836123bf565b91507f596f75206861766520696e7375666669656e742066756e647320746f20436c6160008301527f696d0000000000000000000000000000000000000000000000000000000000006020830152604082019050919050565b6000611f4c6065836123bf565b91507f596f75206e65656420746f206465706f73697420736f6d652045544820746f2060008301527f6372656174652061205461736b2e204f6e6365205461736b206973206e6f742060208301527f636f6d706c657465642c2069742077696c6c2062652072657475726e6564207460408301527f6f20796f750000000000000000000000000000000000000000000000000000006060830152608082019050919050565b6000611ffe6025836123bf565b91507f596f7520617265206e6f74206120667265656c616e636572206f66207468697360008301527f205461736b0000000000000000000000000000000000000000000000000000006020830152604082019050919050565b600060c08301600083015184820360008601526120748282611dc1565b91505060208301516120896020860182611d10565b50604083015161209c6040860182611d10565b5060608301516120af6060860182611da3565b5060808301516120c26080860182612169565b5060a08301516120d560a0860182612169565b508091505092915050565b600060c08301600083015184820360008601526120fd8282611dc1565b91505060208301516121126020860182611d10565b5060408301516121256040860182611d10565b5060608301516121386060860182611da3565b50608083015161214b6080860182612169565b5060a083015161215e60a0860182612169565b508091505092915050565b612172816124b1565b82525050565b612181816124b1565b82525050565b600060208201905081810360008301526121a18184611d2e565b905092915050565b60006020820190506121be6000830184611db2565b92915050565b600060c08201905081810360008301526121de8189611dfa565b90506121ed6020830188611d1f565b6121fa6040830187611d1f565b6122076060830186611db2565b6122146080830185612178565b61222160a0830184612178565b979650505050505050565b6000602082019050818103600083015261224581611e33565b9050919050565b6000602082019050818103600083015261226581611e73565b9050919050565b6000602082019050818103600083015261228581611ed9565b9050919050565b600060208201905081810360008301526122a581611f3f565b9050919050565b600060208201905081810360008301526122c581611ff1565b9050919050565b600060208201905081810360008301526122e681846120e0565b905092915050565b60006020820190506123036000830184612178565b92915050565b6000604051905081810181811067ffffffffffffffff821117156123305761232f6125ce565b5b8060405250919050565b600067ffffffffffffffff821115612355576123546125ce565b5b601f19601f8301169050602081019050919050565b6000819050602082019050919050565b600081519050919050565b600081519050919050565b6000602082019050919050565b600082825260208201905092915050565b600082825260208201905092915050565b600082825260208201905092915050565b60006123db826124b1565b91506123e6836124b1565b9250827fffffffffffffffffffffffffffffffffffffffffffffffffffffffffffffffff0382111561241b5761241a612541565b5b828201905092915050565b6000612431826124b1565b915061243c836124b1565b92508282101561244f5761244e612541565b5b828203905092915050565b600061246582612491565b9050919050565b600061247782612491565b9050919050565b600081905061248c8261260e565b919050565b600073ffffffffffffffffffffffffffffffffffffffff82169050919050565b6000819050919050565b60006124c68261247e565b9050919050565b82818337600083830152505050565b60005b838110156124fa5780820151818401526020810190506124df565b83811115612509576000848401525b50505050565b6000600282049050600182168061252757607f821691505b6020821081141561253b5761253a61259f565b5b50919050565b7f4e487b7100000000000000000000000000000000000000000000000000000000600052601160045260246000fd5b7f4e487b7100000000000000000000000000000000000000000000000000000000600052602160045260246000fd5b7f4e487b7100000000000000000000000000000000000000000000000000000000600052602260045260246000fd5b7f4e487b7100000000000000000000000000000000000000000000000000000000600052604160045260246000fd5b6000601f19601f8301169050919050565b6006811061261f5761261e612570565b5b50565b61262b8161245a565b811461263657600080fd5b50565b612642816124b1565b811461264d57600080fd5b5056fea264697066735822122066f87e9a50f05ec4054785447ccae364d8b2fccca8e27d903fb75bf4cbea18a764736f6c63430008000033",
  "linkReferences": {},
  "deployedLinkReferences": {}
}